:020000040000FA
:100000000C9463000C948B000C948B000C948B006C
:100010000C948B000C948B000C948B000C948B0034
:100020000C948B000C948B000C948B000C948B0024
:100030000C948B000C948B000C948B000C948B0014
:100040000C94D4030C948B000C94A2030C947C03AA
:100050000C948B000C948B000C948B000C948B00F4
:100060000C948B000C948B000000000023002600F1
:10007000290000000008000201000003040700003E
:1000800000000000000000000000250028002B00F8
:1000900000000000240027002A00040404040404D3
:1000A0000404020202020202030303030303010227
:1000B00004081020408001020408102001020408F6
:1000C00010201E04060711241FBECFEFD8E0DEBFAC
:1000D000CDBF11E0A0E0B1E0E4EAF2E102C005909A
:1000E0000D92A434B107D9F722E0A4E4B1E001C035
:1000F0001D92AE37B207E1F710E0C2E6D0E004C0CF
:100100002197FE010E943F09C136D107C9F70E941D
:10011000A5040C9445090C9400009BEF980F9230B5
:1001200058F097EF980F923060F480918100887FAB
:10013000816080938100089585B5887F816085BD49
:100140000895877F833031F48091B100887F81608A
:100150008093B100089590E0FC01E255FF4F249197
:1001600086569F4FFC018491882399F090E0880F78
:10017000991FFC01E057FF4FA591B491FC01EA578C
:10018000FF4F859194918FB7F894EC91E22BEC930B
:100190008FBF0895AF92BF92CF92DF92EF92FF92FE
:1001A0000F931F93CF93DF936C017B018B01040F9F
:1001B000151FEB015E01AE18BF08C017D10759F03B
:1001C0006991D601ED91FC910190F081E02DC6017D
:1001D0000995892B79F7C501DF91CF911F910F9177
:1001E000FF90EF90DF90CF90BF90AF900895FC010B
:1001F000538D448D252F30E0842F90E0821B930B8C
:10020000541710F0CF96089501970895FC01918D31
:10021000828D981761F0A28DAE0FBF2FB11D5D9634
:100220008C91928D9F5F9F73928F90E008958FEFD6
:100230009FEF0895FC01918D828D981731F0828D8A
:10024000E80FF11D858D90E008958FEF9FEF0895E1
:10025000FC01918D228D892F90E0805C9F4F821B45
:1002600091098F73992708958DE491E00E942801E8
:1002700021E0892B09F420E0822F089580E090E0AE
:10028000892B29F00E94340181110C9400000895FB
:10029000FC01A48DA80FB92FB11DA35ABF4F2C91FB
:1002A000848D90E001968F739927848FA689B789F2
:1002B0002C93A089B1898C91837080648C93938DE9
:1002C000848D981306C00288F389E02D80818F7D8C
:1002D00080830895EF92FF920F931F93CF93DF9344
:1002E000EC0181E0888F9B8D8C8D98131AC0E88972
:1002F000F989808185FF15C09FB7F894EE89FF8941
:100300006083E889F98980818370806480839FBFDE
:1003100081E090E0DF91CF911F910F91FF90EF90DE
:100320000895F62E0B8D10E00F5F1F4F0F731127EE
:10033000E02E8C8D8E110CC00FB607FCFACFE88929
:10034000F989808185FFF5CFCE010E944801F1CF68
:10035000EB8DEC0FFD2FF11DE35AFF4FF0829FB79D
:10036000F8940B8FEA89FB8980818062CFCFCF938D
:10037000DF93EC01888D8823B9F0AA89BB89E889CD
:10038000F9898C9185FD03C0808186FD0DC00FB673
:1003900007FCF7CF8C9185FFF2CF808185FFEDCFF1
:1003A000CE010E944801E9CFDF91CF9108958330BB
:1003B00081F028F4813099F08230A9F008958730D7
:1003C000A9F08830C9F08430B1F4809180008F7D2D
:1003D00003C0809180008F7780938000089584B55A
:1003E0008F7784BD089584B58F7DFBCF8091B00059
:1003F0008F778093B00008958091B0008F7DF9CF02
:10040000CF93DF93282F30E0F901EE58FF4F84910E
:10041000F901E255FF4FD491F901E656FF4FC4911F
:10042000CC23A1F081110E94D701EC2FF0E0EE0F58
:10043000FF1FE859FF4FA591B491EC91ED2381E0A6
:1004400090E009F480E0DF91CF91089580E090E0A2
:10045000FACF0F931F93CF93DF9303E712E0F801D6
:100460001082809137020E940002EC0180913802D4
:100470000E940002CC0FDD1FCC0FDD1F880F991FDB
:10048000C82B809139020E9400028C2BF8018083D6
:10049000DF91CF911F910F9108951F93CF93DF9319
:1004A000282F30E0F901EE58FF4F8491F901E25511
:1004B000FF4FD491F901E656FF4FC491CC23A9F028
:1004C000162F81110E94D701EC2FF0E0EE0FFF1FD5
:1004D000EA57FF4FA591B4918FB7F894EC911111A1
:1004E00008C0D095DE23DC938FBFDF91CF911F91A1
:1004F0000895DE2BF8CF60E0809134020E944D0217
:1005000060E0809135020E944D0260E080913602E9
:100510000C944D021F93CF93DF93182FEB010E9491
:10052000AB00209739F460E0812FDF91CF911F91CC
:100530000C944D02CF3FD10511F461E0F5CFE12FCE
:10054000F0E0EE58FF4FE491E33031F140F4E13058
:10055000B1F0E230E1F0C038D1057CF7E4CFE7300C
:1005600029F1E83059F1E430B1F7809180008062E0
:1005700080938000D0938B00C0938A0004C084B520
:10058000806884BDC7BDDF91CF911F91089584B568
:10059000806284BDC8BDF7CF809180008068809361
:1005A0008000D0938900C0938800EDCF8091B00087
:1005B00080688093B000C093B300E5CF8091B00015
:1005C00080628093B000C093B400DDCF8230E9F147
:1005D00028F4882361F0813061F10895843009F4B2
:1005E00059C008F44BC0853009F473C0089561E028
:1005F000809134020E944D0261E0809135020E9498
:100600004D0260E0809136020E944D0260914602E8
:1006100070E0809131020E948A0270E060E0809177
:1006200032020E948A0270E060E0809133020C94F2
:100630008A0261E0809134020E944D0260E0809164
:1006400035020E944D0261E0DDCF60E0809134020E
:100650000E944D0261E0809135020E944D0261E0EE
:10066000809136020E944D0270E060E0809131027C
:100670000E948A026091460270E0D1CF61E08091D1
:1006800034020E944D0261E0809135020E944D02C9
:1006900060E0E6CF61E0809134020E944D0260E0AC
:1006A000809135020E944D0261E0809136020E94E5
:1006B0004D0270E060E0809131020E948A0270E099
:1006C00060E0809132020E948A026091460270E0EE
:1006D000ACCF60E0809134020E944D0261E0E0CF37
:1006E0002FB7F8946091490170914A0180914B01B4
:1006F00090914C012FBF08951F920F920FB60F9249
:1007000011242F933F934F935F936F937F938F9316
:100710009F93AF93BF93EF93FF938DE491E00E947B
:100720004801FF91EF91BF91AF919F918F917F9180
:100730006F915F914F913F912F910F900FBE0F904E
:100740001F9018951F920F920FB60F9211242F939E
:100750008F939F93EF93FF93E0915D01F0915E0182
:100760008081E0916301F091640182FD1BC0908162
:10077000809166018F5F8F7320916701821741F02E
:10078000E0916601F0E0E35BFE4F958F8093660198
:10079000FF91EF919F918F912F910F900FBE0F902E
:1007A0001F9018958081F4CF1F920F920FB60F9271
:1007B00011242F933F938F939F93AF93BF93809177
:1007C000490190914A01A0914B01B0914C013091A7
:1007D000480123E0230F2D3758F50196A11DB11DC7
:1007E000209348018093490190934A01A0934B01C3
:1007F000B0934C018091440190914501A091460134
:10080000B09147010196A11DB11D809344019093C1
:100810004501A0934601B0934701BF91AF919F91CD
:100820008F913F912F910F900FBE0F901F901895B1
:1008300026E8230F0296A11DB11DD2CFEDE4F1E011
:100840001382128288EE93E0A0E0B0E08483958367
:10085000A683B78382E291E09183808385EC90E068
:100860009587848784EC90E09787868780EC90E07A
:10087000918B808B81EC90E0938B828B82EC90E06B
:10088000958B848B86EC90E0978B868B118E128EE5
:10089000138E148E1092EA0110923D0210924902BA
:1008A0001092480283E0809352022AE530E03093B0
:1008B00054022093530294E6909355029CE1E2E0A7
:1008C000F1E0A6E5B2E001900D929A95E1F7109261
:1008D000730210927502109274024FEF59EC6AE99C
:1008E0007BE3409376025093770260937802709393
:1008F000790210927A0210927B0210927C0210927E
:100900007D029BE0909331029AE09093320299E04D
:100910009093330296E09093340295E090933502E1
:100920008093360281E18093370280E18093380220
:100930008FE0809339028EE080933A0282E18093C7
:100940003B0283E180933C020895CF93DF93CDB7C0
:10095000DEB7EA970FB6F894DEBF0FBECDBF78942E
:1009600084B5826084BD84B5816084BD85B58260B4
:1009700085BD85B5816085BD80916E008160809365
:100980006E001092810080918100826080938100CE
:1009900080918100816080938100809180008160DE
:1009A000809380008091B10084608093B100809139
:1009B000B00081608093B00080917A008460809361
:1009C0007A0080917A00826080937A0080917A0028
:1009D000816080937A0080917A00806880937A00A9
:1009E0001092C100E0915D01F0915E0182E0808390
:1009F000E0915901F0915A011082E0915B01F09170
:100A00005C0180E1808310926501E0916101F091C9
:100A1000620186E08083E0915F01F0916001808156
:100A200080618083E0915F01F09160018081886046
:100A30008083E0915F01F091600180818068808314
:100A4000E0915F01F091600180818F7D80838091D2
:100A500034020E94AB00809135020E94AB0080916D
:100A600036020E94AB00809131020E94AB0080915F
:100A700032020E94AB00809133020E94AB0060E022
:100A8000809134020E944D0260E0809135020E9404
:100A90004D0260E0809136020E944D0260E080913C
:100AA00031020E944D0260E0809132020E944D02AC
:100AB00060E0809133020E944D02809131020E94D9
:100AC0008D00809132020E948D00809133020E943D
:100AD0008D0084E08093EB0181E08093EC014AE09B
:100AE00057ED63E27CE34093ED015093EE01609398
:100AF000EF017093F0014093F1015093F201609384
:100B0000F3017093F4019AE3EBEEF1E0DE0111964C
:100B100001900D929A95E1F71092EA011092450228
:100B2000109244028093470280E5809346020E941F
:100B300070036C597F4F8F4F9F4F60937602709375
:100B4000770280937802909379028AE3FE013196CE
:100B5000ABEEB1E001900D928A95E1F780E090E074
:100B6000A0ECB1E48093400290934102A093420232
:100B7000B093430200E010E0EE24E394F12CC09027
:100B80000001D0900101C114D10409F432C1809157
:100B9000440290914502892B09F0F6C00E94290277
:100BA00080937202E82FF0E0EA5AFD4F80810E94A4
:100BB000E602F0924502E09244020E9470038090A7
:100BC000760290907702A0907802B0907902861613
:100BD0009706A806B90608F090C06091740270915B
:100BE000750290E080E00E941B0820914002309145
:100BF000410240914202509143020E947A0720E054
:100C000030E046E154E40E94D2084B015C010E94AE
:100C100070036C597F4F8F4F9F4F60937602709394
:100C200077028093780290937902B60190E080E099
:100C30000E941B08A50194010E9408074B015C015A
:100C400080914602803FA0F4A501940160917A0250
:100C500070917B0280917C0290917D020E94090735
:100C600060937A0270937B0280937C0290937D0262
:100C700020917A0230917B0240917C0250917D025A
:100C80006091F1017091F2018091F3019091F40172
:100C90000E94D2082B013C012091ED013091EE0120
:100CA0004091EF015091F001C501B4010E94D208BA
:100CB0009B01AC01C301B2010E9409074B015C0119
:100CC00020E030E040E753E40E94CD0818160CF411
:100CD00082C020E030E040EF51E4C501B4010E9441
:100CE000750787FD7FC0C501B4010E94EC076093C2
:100CF00046021092750210927402809174029091D3
:100D00007502019690937502809374028DE491E0D0
:100D10000E942801181619065CF58DE491E00E94E6
:100D2000060120910001309101018B3209F068C069
:100D300028533F4F3093010120930001609100013F
:100D400070910101605D7E4FFB0101900020E9F789
:100D50003197AF01461B570B8DE491E00E94CA000A
:100D600042E050E060E471E08DE491E00E94CA004E
:100D70000115110509F403CF0E943401882309F4F9
:100D8000FECE0E940000FBCE0E9470034B015C016E
:100D9000709072020E942902781212C00E947003A1
:100DA000681979098A099B09653F71408105910598
:100DB00078F30E947B021092450210924402FDCE0D
:100DC000E0917302E0937202F0E0EA5AFD4F8081F5
:100DD0000E94E602F2CE812C912C90E7A92E93E49A
:100DE000B92E81CF812C912C80EFA82E81E4B82ED2
:100DF0007ACF0E947B02109245021092440286CF65
:100E00008D3209F09BCF285C310994CF0C947B0282
:100E10005058BB27AA270E9420070C9493080E94D1
:100E2000850838F00E948C0820F039F49F3F19F4AF
:100E300026F40C9482080EF4E095E7FB0C947C08F1
:100E4000E92F0E94A40858F3BA17620773078407B2
:100E5000950720F079F4A6F50C94C6080EF4E095F9
:100E60000B2EBA2FA02D0B01B90190010C01CA0164
:100E7000A0011124FF27591B99F0593F50F4503E0F
:100E800068F11A16F040A22F232F342F4427585F01
:100E9000F3CF469537952795A795F0405395C9F719
:100EA0007EF41F16BA0B620B730B840BBAF09150D1
:100EB000A1F0FF0FBB1F661F771F881FC2F70EC070
:100EC000BA0F621F731F841F48F487957795679543
:100ED000B795F7959E3F08F0B0CF9395880F08F02F
:100EE0009927EE0F9795879508950E94580808F462
:100EF00081E008950E948E070C9493080E948C084C
:100F000058F00E94850840F029F45F3F29F00C94C6
:100F10007C0851110C94C7080C9482080E94A40804
:100F200068F39923B1F3552391F3951B550BBB2718
:100F3000AA2762177307840738F09F5F5F4F220F5D
:100F4000331F441FAA1FA9F335D00E2E3AF0E0E854
:100F500032D091505040E695001CCAF72BD0FE2F9E
:100F600029D0660F771F881FBB1F26173707480732
:100F7000AB07B0E809F0BB0B802DBF01FF279358EA
:100F80005F4F3AF09E3F510578F00C947C080C942A
:100F9000C7085F3FE4F3983ED4F38695779567954D
:100FA000B795F7959F5FC9F7880F911D969587951F
:100FB00097F90895E1E0660F771F881FBB1F62173E
:100FC00073078407BA0720F0621B730B840BBA0BFC
:100FD000EE1F88F7E09508950E94AC0888F09F57AF
:100FE00098F0B92F9927B751B0F0E1F0660F771F4D
:100FF000881F991F1AF0BA95C9F714C0B13091F043
:101000000E94C608B1E008950C94C608672F782F97
:101010008827B85F39F0B93FCCF386957795679507
:10102000B395D9F73EF490958095709561957F4F73
:101030008F4F9F4F0895E89409C097FB3EF4909519
:101040008095709561957F4F8F4F9F4F9923A9F0A1
:10105000F92F96E9BB279395F69587957795679530
:10106000B795F111F8CFFAF4BB0F11F460FF1BC074
:101070006F5F7F4F8F4F9F4F16C0882311F096E907
:1010800011C0772321F09EE8872F762F05C06623B5
:1010900071F096E8862F70E060E02AF09A95660F6E
:1010A000771F881FDAF7880F9695879597F9089527
:1010B000990F0008550FAA0BE0E8FEEF1616170669
:1010C000E807F907C0F012161306E407F50798F0D1
:1010D000621B730B840B950B39F40A2661F0232BEA
:1010E000242B252B21F408950A2609F4A140A69566
:1010F0008FEF811D811D089597F99F6780E870E04B
:1011000060E008959FEF80EC089500240A9416167D
:10111000170618060906089500240A9412161306E5
:10112000140605060895092E0394000C11F4882373
:1011300052F0BB0F40F4BF2B11F460FF04C06F5F8F
:101140007F4F8F4F9F4F089557FD9058440F551F65
:1011500059F05F3F71F04795880F97FB991F61F039
:101160009F3F79F087950895121613061406551FB0
:10117000F2CF4695F1DF08C0161617061806991F1C
:10118000F1CF86957105610508940895E894BB2711
:1011900066277727CB0197F908950E94580808F42D
:1011A0008FEF08950E94E5080C9493080E9485082B
:1011B00038F00E948C0820F0952311F00C947C08E4
:1011C0000C94820811240C94C7080E94A40870F3A0
:1011D000959FC1F3950F50E0551F629FF001729FDC
:1011E000BB27F00DB11D639FAA27F00DB11DAA1FEB
:1011F000649F6627B00DA11D661F829F2227B00D38
:10120000A11D621F739FB00DA11D621F839FA00DC2
:10121000611D221F749F3327A00D611D231F849F12
:10122000600D211D822F762F6A2F11249F57504069
:101230009AF0F1F088234AF0EE0FFF1FBB1F661FE4
:10124000771F881F91505040A9F79E3F510580F0AD
:101250000C947C080C94C7085F3FE4F3983ED4F3E9
:10126000869577956795B795F795E7959F5FC1F751
:10127000FE2B880F911D9695879597F90895EE0F8F
:10128000FF1F0590F491E02D099410E0C2E6D0E034
:1012900004C0FE010E943F092196C336D107C9F759
:1012A000F894FFCF2003090400050203010901039C
:1012B00002050004090501000304020900020104FB
:1012C0000503000000006A01CA00F700B701280109
:1012D00006011A0143757272656E7420737065653C
:0812E000643A20000D0A000031
:107E0000112484B714BE81FFF0D085E080938100F7
:107E100082E08093C00088E18093C10086E0809377
:107E2000C20080E18093C4008EE0C9D0259A86E02C
:107E300020E33CEF91E0309385002093840096BBD3
:107E4000B09BFECF1D9AA8958150A9F7CC24DD24C4
:107E500088248394B5E0AB2EA1E19A2EF3E0BF2EE7
:107E6000A2D0813461F49FD0082FAFD0023811F036
:107E7000013811F484E001C083E08DD089C08234E0
:107E800011F484E103C0853419F485E0A6D080C0E4
:107E9000853579F488D0E82EFF2485D0082F10E0AE
:107EA000102F00270E291F29000F111F8ED06801E7
:107EB0006FC0863521F484E090D080E0DECF843638
:107EC00009F040C070D06FD0082F6DD080E0C81688
:107ED00080E7D80618F4F601B7BEE895C0E0D1E017
:107EE00062D089930C17E1F7F0E0CF16F0E7DF06D8
:107EF00018F0F601B7BEE89568D007B600FCFDCFD4
:107F0000A601A0E0B1E02C9130E011968C91119780
:107F100090E0982F8827822B932B1296FA010C0160
:107F200087BEE89511244E5F5F4FF1E0A038BF0790
:107F300051F7F601A7BEE89507B600FCFDCF97BE46
:107F4000E89526C08437B1F42ED02DD0F82E2BD052
:107F50003CD0F601EF2C8F010F5F1F4F84911BD097
:107F6000EA94F801C1F70894C11CD11CFA94CF0C13
:107F7000D11C0EC0853739F428D08EE10CD085E9AC
:107F80000AD08FE07ACF813511F488E018D01DD067
:107F900080E101D065CF982F8091C00085FFFCCF94
:107FA0009093C60008958091C00087FFFCCF809118
:107FB000C00084FD01C0A8958091C6000895E0E648
:107FC000F0E098E1908380830895EDDF803219F02E
:107FD00088E0F5DFFFCF84E1DECF1F93182FE3DFCA
:107FE0001150E9F7F2DF1F91089580E0E8DFEE27F6
:047FF000FF270994CA
:027FFE00040479
:00000001FF
